:020000040800F2
:10000000E809002045010008473000087D26000867
:1000100045300008C5080008793B000800000000D2
:100020000000000000000000000000007133000824
:1000300057090008000000008932000873330008E7
:100040005F0100085F0100085F0100085F01000810
:100050005F0100085F010008650900085F010008F2
:100060005F0100085F010008010A00085F01000845
:100070005F010008150900085F0100085F01000822
:10008000210900085F0100085F0100085F01000806
:100090005F0100085F0100085F010008310A0008E5
:1000A0005F0100085F0100085F0100085F010008B0
:1000B0005F0100085F0100085F0100085F010008A0
:1000C0005F0100085F0100085F0100085F01000890
:1000D0005F0100085F010008B93A00086D3B0008A5
:1000E0005F0100085F0100085F0100085F01000870
:1000F0005F0100085F0100085F0100085F01000860
:100100005F0100085F0100085F0100085F0100084F
:100110005F0100085F0100085F0100085F0100083F
:100120005F0100085F0100085F0100085F0100082F
:10013000DFF80CD000F036FB0048004761490008AA
:10014000E80900200648804706480047FEE7FEE72A
:10015000FEE7FEE7FEE7FEE7FEE7FEE7FEE7FEE777
:10016000D533000831010008202A04DB203A21FAA7
:1001700002F00021704721FA02F3D040C2F12002C0
:100180009140084319467047D2B201E000F8012BB4
:10019000491EFBD270470022F6E710B513460A4607
:1001A00004461946FFF7F0FF204610BDF0B480EA80
:1001B0000102D40F4200B2EB410F02D202460846C0
:1001C00011464A0042D0C30DDDB2C1F3C752AD1A89
:1001D000202D35DAC1F3160141F4000204B1524278
:1001E000C5F1200602FA06F12A411044B3EBD05FB4
:1001F00023D0C4B1012DA0EBC35009DCF0BC4FF0FB
:10020000004202EAC352DBB200F5000000F0E4B89D
:10021000400000F1807000EBC350A0F1807040EA14
:10022000D170490009E0490841EAC071A0EBC35010
:1002300000F50000400800EBC350F0BC00F0C3B86C
:100240006142012202EB4101001BF6E7F0BC70475E
:1002500081F00041AAE780F00040A7E780EA0102B0
:1002600010B502F00043400022D04A001FD0010E1A
:1002700001EB1261C0F35600C2F3560240F40000D5
:1002800042F40002A0FB022000047F39140400D0D5
:10029000401C50EA124001D44000491EC2B20C0674
:1002A00004EBD010401C4008802A02D003E000205C
:1002B00010BD20F00100002900DA0020184310BD15
:1002C000420005D0C0F3C7525242914201DC0020E7
:1002D000704700EBC1507047C10F80EAE0700844DE
:1002E000CA079623002100F077B820F00040C10D26
:1002F000C0F3160040F400007F2901DA00207047A7
:10030000962903DCC1F19601C840704796398840B0
:10031000704700F0004230F000400AD0C10D01F5F6
:100320006071C0F3160042EA0151C2084007114350
:10033000704700200146704730B50B46014600204B
:100340002022012409E021FA02F59D4205D303FA97
:1003500002F5491B04FA02F52844151EA2F1010218
:10036000F1DC30BD2DE9F05F0546002092469B464A
:1003700088460646814640241BE0284641464746BB
:100380002246FFF7F1FE53465A46C01A914110D358
:1003900011461846224600F017FA2D1A67EB01089D
:1003A0004F4622460120002100F00EFA17EB00090B
:1003B0004E41201EA4F10104DFDC484631462A46A6
:1003C0004346BDE8F09F0029A8BF7047401C490084
:1003D00008BF20F00100704710B4B0FA80FC00FAAA
:1003E0000CF050EA010404BF10BC704749B1CCF1D5
:1003F000200421FA04F411FA0CF118BF0121214361
:100400000843A3EB0C01CB1D4FEA00614FEA10201B
:1004100042BF002010BC704700EBC35010440029BD
:10042000A4BF10BC7047401C490008BF20F0010069
:1004300010BC70472DE9FE4F804681EA0300C00FD3
:100440000C46009021F0004123F00045B8EB02007B
:10045000A94105D24046214690461C460B4602461D
:1004600023F00040104347D0270DC7F30A00C3F321
:100470000A510290401A019040286BDAC3F313002E
:1004800040F4801B0098924620B10023D2EB030A6F
:1004900063EB0B0B01985946C0F14002504600F047
:1004A00093F906460D4650465946019A00F09BF9CD
:1004B00010EB08006141002487EA115284EAE773D7
:1004C0001A4340D0009A62B3019A012A4FEA0752B8
:1004D00015DC001B61EB02014FF0004202EA0752FB
:1004E000CDE90042001C41F5801132462B4600F058
:1004F0009BF903B0BDE8F08F40462146F9E7001BA9
:1005000061EB0201001C41F5801300185B412018CB
:10051000A2F5001747EB030140EAD570B6196D410B
:1005200011E06D084FEA360645EAC0754FEA0752FA
:10053000001B61EB0201001C41F5801149084FEAE4
:1005400030000019514132462B4603B0BDE8F04F50
:1005500000F05BB90098012240000023D0EB0202BA
:1005600063EBE073009821464FEAE074B8EB0000BB
:1005700061EB0401E9E783F000435BE781F00041B0
:1005800058E72DE9FE4F81EA030404F0004421F00E
:10059000004100944FF0000B23F0004350EA0104A7
:1005A0005ED052EA03045BD0C3F30A54C1F30A5588
:1005B0002C44A4F2F3340194A0FB0254C1F31301C0
:1005C00041F48011C3F3130343F4801301FB02448D
:1005D00000FB034E840A970A44EA815447EA835792
:1005E000A4FB076802958D0A05FB07854FEA932C4B
:1005F00004FB0C542705029D4FEA065847EA1637BC
:10060000B5EB08056EEB070C870E920E47EA8117D3
:1006100042EA8312A7FB0201B6EB0B0164EB000474
:100620002B0D43EA0C335E1844EB1C50DA4651465E
:10063000E7FB0201C5F313044FEA0B3343EA1453FB
:100640004FEA0432019C43EA0603A4F10C0402942D
:10065000009CCDE900B400F0E7F803B0BDE8F08FEE
:1006600000200146F9E72DE9F04D81EA030404F08A
:10067000004B21F0004514464FF0000A23F00041E2
:1006800050EA050220D054EA01021DD0C5F30A57F2
:100690000246C5F31303C1F31300C1F30A5640F435
:1006A000801543F48013A7EB0608101BD64608F20A
:1006B000FD3873EB050002D308F1010801E0921840
:1006C0005B41B8F1000F03DA00200146BDE8F08D70
:1006D00000204FF48011064684460EE0171B73EB92
:1006E000050705D3121B63EB050306434CEA010C17
:1006F00049084FEA300092185B4150EA0107EDD1FA
:1007000052EA030012D082EA040083EA050108439A
:1007100005D0101BAB4106D20122002306E00022C7
:100720004FF0004302E06FF0010253101AEB060095
:100730004CEB085110EB0A0041EB0B01BDE8F04D0A
:1007400000F063B8C1F30A52C1F3130140F2FF3362
:1007500041F480119A4202DA00200146704740F2CB
:1007600033439A42A2F2334202DC5242FFF7FCBC0E
:1007700000F02AB830B5041E71F1000404DB4FF01C
:100780000044404264EB0101141E73F1000405DBD8
:100790001C464FF00043524263EB0403994208BFEA
:1007A000904230BD064C074D06E0E06840F0010382
:1007B00094E8070098471034AC42F6D3FFF7BCFC2E
:1007C00088570008A8570008202A04DB203A00FABE
:1007D00002F1002070479140C2F1200320FA03F398
:1007E000194390407047202A06DBCB17203A41FA84
:1007F00002F043EAE07306E041FA02F3D040C2F1AE
:100800002002914008431946704710B5141E73F139
:10081000000408DA401C41F1000192185B411A43C0
:1008200001D120F0010010BD2DE9F04D92469B460C
:1008300011B1B1FA81F202E0B0FA80F220329046B2
:10084000FFF7C2FF04460F4640EA0A0041EA0B01E7
:1008500053465A46084313D0114653EA010019D0B3
:10086000C8F140025046FFF77FFC05460E46504651
:1008700059464246FFF7A8FF084305D0012004E08F
:1008800020463946BDE8F08D0020054346EAE07673
:100890002C4337430A986305E40AA0EB08000022C2
:1008A000FD0A44EA47540A3002D500200146E9E730
:1008B000010510196941DDE9084500196941BDE8E4
:1008C000F04DA2E7FEE7000010B50023104A15E046
:1008D000362809D039280BD03C2812D014783F286C
:1008E00013D044F0800406E0147844F0010402E0E0
:1008F000147844F002041470401C5B1C8B42E7D354
:1009000010BD147844F00804F5E744F00404F2E75D
:10091000B4000020014800F069B90000F80200208E
:10092000014800F063B90000B402002030B590F82F
:1009300040500124AC40C56B6C6004686360436840
:10094000102B036803D099600068C26030BD9A60C4
:100950000068C16030BD7047C000401EFDD27047C6
:1009600003F05ABF10B51CA003F0ACFA1B4908688D
:10097000401C0860032801D1002008604FF47A74FD
:10098000012802D0022821D10FE002F05DFB0223F2
:1009900013A20021052002F0F1FB02F0CFFB20465C
:1009A00003F03AFF03F0BAF90EE002F04DFB022328
:1009B0000FA20021052002F0E1FB02F0BFFB204660
:1009C00003F02AFF03F0C8F902F03EFBBDE8104037
:1009D000012000F0B9BA000061000000080000200A
:1009E0005374617274204D6167204361696C00002B
:1009F00053746F70204D6167204361696C00000083
:100A000010B502F021FB09490868401C0860032862
:100A100001D100200860012803D0022801D104F090
:100A20000BF8BDE81040102000F08EBA0400002042
:100A300070B50D4E4FF480742146304600F08CFBAB
:100A4000650048B12946304600F086FB012803D1F5
:100A500006480168491C0160204600F075FA2846E6
:100A6000BDE8704000F070BA00180140000000209E
:100A700072B6FEE710B590F821100022022905D0C9
:100A80000421816380F82020012010BD01680B68DB
:100A900023F00E030B6001680B6823F001030B6069
:100AA00090F84030C46B012101FA03F3636080F8D1
:100AB000211080F82020104610BD00002DE9F05FC5
:100AC00090F821100024022903D00421816301241D
:100AD00085E001680A6822F00E020A6001680A686F
:100AE00022F001020A603F4E3E4FB215DFF8F4C01B
:100AF000DFF8F090DFF8ECA0DFF8E8B0DFF8E4E032
:100B00000168783F13011502ACF1640CA9F150099A
:100B1000AAF13C0AABF1280BAEF1140E4FF4801889
:100B2000B14227D9B9420ED0614512D049451DD0F6
:100B3000514518D0594518D0714501D1424615E0AC
:100B4000294EB14201D1012210E0274E1436B142A4
:100B500001D110220AE0244E2836B14206D0224AA2
:100B60003C32914201D11A4600E02A461E49091F33
:100B70000A602BE0B94213D0614517D0494522D015
:100B800051451DD059451DD0714501D142461AE04D
:100B9000B14202D14FF0807215E0134EB14201D143
:100BA000012210E0104E1436B14201D110220AE0A9
:100BB0000D4E2836B14206D00B4A3C32914201D14B
:100BC0001A4600E02A46074980394A60012180F828
:100BD0002110002180F82010416B01B18847204688
:100BE000BDE8F09F80000240080402402DE9F05F5C
:100BF000C16B0A6801680B68046C4FF0040808FABE
:100C000004F8844D844E854FDFF814C2DFF8149247
:100C1000DFF814A2DFF814B2DFF814E218EA020FCA
:100C200065D05FEA437862D50A68920603D40A6801
:100C300022F004020A60DFF8F0814FF4806201685C
:100C400008F1140813011402414524D9A9420DD01A
:100C5000B1420FD0B9421AD0614515D0494515D0DF
:100C6000514501D1120312E0594501D104220EE091
:100C7000714501D140220AE06D4D1435A94206D0DC
:100C80006B4A2832914201D11A4600E02246674958
:100C9000091F0A6029E0A94213D0B14215D0B94218
:100CA00020D061451BD049451BD0514502D14FF49E
:100CB000800217E0414502D14FF0806212E05945B1
:100CC00001D104220EE0714501D140220AE0584DC5
:100CD0001435A94206D0564A2832914201D11A460B
:100CE00000E022464B4908394A60C16A71E04FF082
:100CF000020808FA04F818EA020F70D05FEA837855
:100D00006DD50A68920606D40A6822F00A020A60C3
:100D1000012180F82110DFF810814FF40072016882
:100D200008F1140813011402414524D9A9420DD039
:100D3000B1420FD0B9421AD0614515D0494515D0FE
:100D4000514501D1120312E0594501D102220EE0B2
:100D5000714501D120220AE0354D1435A94206D053
:100D6000334A2832914201D11A4600E022462F49E7
:100D7000091F0A6029E0A94213D0B14215D0B94237
:100D800020D061451BD049451BD0514502D14FF4BD
:100D9000001217E0414502D14FF0007212E05945B0
:100DA00001D102220EE0714501D120220AE0204D3E
:100DB0001435A94206D01E4A2832914201D11A4662
:100DC00000E02246134908394A60002180F82010CB
:100DD000816A00291CD0BDE8F05F0847FFE70825BD
:100DE000A540154214D01A0712D50A6822F00E0247
:100DF0000A6090F84020C36B012101FA02F25A60A8
:100E0000816380F82110002180F82010016BE0E759
:100E1000BDE8F09F080002401C0002403000024084
:100E200044000240580002406C00024008040240A6
:100E30001C04024030B560B11A4B026814219A427A
:100E400009D2194B1344B3FBF1F18900016417492E
:100E50000AE0012030BD134B5B421344B3FBF1F1B8
:100E6000890001640F490839C163022180F821100B
:100E7000136843F6F0718B43F0E901142143D0E984
:100E800002452C4321430469214344692143846979
:100E90002143194311600021416301224277017708
:100EA000084630BD08040240F8FFFDBF00000240C4
:100EB00070B5044690F82000002501280CD00120D0
:100EC00084F8200094F821600020012E06D084F8D8
:100ED00020000225284670BD022070BD022684F83D
:100EE0002160A0632068066826F00106066020469F
:100EF000FFF71CFDE06A00282068016802D041F07D
:100F00000E0106E021F0040101602068016841F053
:100F10000A0101602068016841F001010160D9E720
:100F200070B5044600F022F90546601C02D0044862
:100F30000078044400F01AF9401BA042FAD370BDB7
:100F40001400002070470000044910B50A680242EE
:100F500002D00860FFF7F6FF10BD00001404014046
:100F60002DE9F84FDFF8C891002409F1040A0AF1CD
:100F7000040B23460F270BF1040ED1E00125A540F9
:100F800006EA0502AA4276D1DFF8A8C14E68A6EBB0
:100F90000C0866452BD00DDC032E34D005DC36B3AF
:100FA000012E19D0022E2FD11BE0112E16D0122E99
:100FB0002AD119E0B8F5881F19D006DCB8F5803FB2
:100FC00015D0B8F5801F1FD111E0B8F5001F0ED065
:100FD000B8F5041F18D10AE0CB6815E0CB681B1DDB
:100FE00012E0CB6808330FE0CB680C330CE08B6861
:100FF0002BB1012B4FF0080303D0456104E004231B
:1010000002E0056100E00023FF2A01D8064601E066
:1010100000F104064FEA840501D9A5F12005D6F8B0
:10102000008007FA05FC28EA0C0803FA05F548EAEF
:101030000508C6F800804D68ED0070D53E4DAE69DC
:1010400046F00106AE61AD6924F0030605F0010526
:1010500000953A4D06EB050CDCF80850A607360F54
:1010600007FA06F825EA0805DFF8D480404503D1E1
:101070004FF0000825E052E0DFF8C880404502D17B
:101080004FF001081DE0DFF8C080404502D14FF06D
:10109000020816E0DFF8B480404502D14FF00308A3
:1010A0000FE0DFF8AC80404502D14FF0040808E0C3
:1010B000DFF8A080404502D14FF0050801E04FF075
:1010C000060808FA06F848EA0508CCF808804D68D2
:1010D000D9F80060ED034D4601D5164300E0964374
:1010E0002E604D68DAF80060AD03554601D5164311
:1010F00000E096432E604D68DBF80060ED025D462F
:1011000001D5164300E096432E604D68DEF800607E
:10111000AD02754601D5164300E096432E60641C6F
:101120000A681646E2407FF429AFBDE8F88F000058
:1011300000040140000011100010024000000140B6
:1011400000080140000C0140001001400014014063
:1011500000180140001C01408068084000D00120B8
:1011600070470AB1016170470904FBE701488068D4
:10117000704700001400002070B5040025D094F8DA
:101180003D00002520B984F83C50204600F050F97D
:10119000242084F83D002068016821F001010160ED
:1011A0002068016841F4004101602068016821F471
:1011B0000041016000F09EFA4D4A6168914201D8F9
:1011C0004C4900E04C49884201D2012070BD4B4996
:1011D0002368B0FBF1F15E6826F03F060E435E60C7
:1011E0006368934206D94FF4967359434FF47A7368
:1011F000B1FBF3F12368491C1E6A26F03F06314318
:1012000019626168914210D84900401EB0FBF1F2AA
:10121000521CC2F30B02042A01D2042022E0B0FBCC
:10122000F1F0401CC0F30B001CE0A268F2B301EB2C
:10123000C10303EB0116431EB3FBF6F35B1C43F43F
:1012400080431B0549D092B301EBC10202EB0111AF
:10125000401EB0FBF1F0401CC0F30B0040F4804096
:1012600040F400402168CA694CF6FF739A4310436A
:10127000C861D4E9071001432068026822F0C00267
:1012800011430160D4E9030101432068826848F2F8
:10129000FF339A4311438160D4E905010843216873
:1012A000CA6822F0FF021043C86001E00EE016E0B9
:1012B0002068016841F0010101602564202084F864
:1012C0003D00256384F83E50002070BD01EB4106CF
:1012D000431EB3FBF6F35B1CB3E70120C2E701EB4F
:1012E0004101401EB0FBF1F0401CC0F30B00B7E71A
:1012F000A086010080841E0000093D0040420F00CE
:101300002DE9FF4F83B09A46DDE9119793460446D5
:10131000DDF84080FFF72AFF054694F83D002028BD
:101320007FD11923012240492046009501F038FA67
:10133000002876D194F83C00012872D0012084F86E
:101340003C0020680168C90703D1016841F0010130
:1013500001602068016821F400610160212084F8A7
:101360003D00402084F83E0000262664C4F8248016
:10137000A4F82A90608D20852C48E062CDE90075A4
:1013800053465A462046049901F090F970B930E06E
:101390002A463946204601F082FA58B1206C0428CA
:1013A00004D12068016841F400710160012007B098
:1013B000BDE8F08F606A216800780861606A401CAF
:1013C0006062218D491E89B22185628D521E62851F
:1013D00022685369DB435B070BD469B10078106165
:1013E000606A401C6062208D401E2085608D401E1A
:1013F0006085208D0028CBD12A463946204601F051
:10140000A9F90028CAD154F83D0B016841F40071D4
:101410000160202004F81E09E67766770020C6E701
:10142000FFE70220C3E70000020010000000FFFFFA
:1014300010B586B0002100910191029103910068DE
:10144000104988421BD1104CA06940F00800A061EF
:10145000A069694600F0080004904FF440600090D5
:1014600012200190032003900848FFF779FDE069FE
:1014700040F48000E061E06900F48000049006B070
:1014800010BD00000058004000100240000C014058
:10149000024881680278114481607047140000207E
:1014A000074810B5016841F010010160032000F009
:1014B00079F8002000F006F800F024F8002010BDB4
:1014C0000020024070B50D4D04464FF47A71287823
:1014D000B1FBF0F00A490968B1FBF0F000F0FCFA4A
:1014E00048B9102C07D200222146501E00F03AF8CD
:1014F00000206C6070BD012070BD00001400002051
:10150000200000200E4808B5816941F00101816189
:10151000816901F001010091C16941F08051C1610F
:10152000C06900F080500090052000F03BF80548AD
:10153000416821F0E06141F00071416008BD0000A8
:101540000010024000000140002809DB00F01F02EB
:10155000012191404009800000F1E020C0F8001115
:1015600070470000F0B40E4B1B680C46C3F3022317
:10157000C3F10705042D00D90425191D072901D23F
:10158000002300E0DB1E012606FA05F1491E21407A
:1015900099409E40761E16403143F0BC02F0B8BC24
:1015A0000CED00E0064900F0070208684FF6FF0363
:1015B000184040EA0220034A1043086070470000C8
:1015C0000CED00E00000FA052DE9F0470F4605009C
:1015D00061D0434E306800F00700B84209D230684D
:1015E00020F0070038433060306800F00700B84250
:1015F00051D128683B4C810712D5400703D560685C
:1016000040F4E06060602878000703D5606840F42B
:10161000605060606068A96820F0F0000843606076
:101620002878C00728D06868012810D021680228CF
:1016300010D0890700292EDA616821F003010143E7
:101640006160FFF793FD804641F288390DE0216823
:101650008903EFE78901EDE7FFF788FDA0EB0801BB
:10166000494502D90320BDE8F0876068696800F049
:101670000C00B0EB810FEFD1306800F00700B842EA
:101680000BD9306820F0070038433060306800F034
:101690000700B84201D00120E5E72878400705D5CA
:1016A0006068E96820F4E06008436060287800071B
:1016B00006D56068296920F4605040EAC100606086
:1016C00000F038F86168084AC1F30311515CC84062
:1016D0000649086006480068FFF7F4FE0020C2E7EC
:1016E0000020024000100240584D00082000002059
:1016F000180000200448054900684968044AC1F3FD
:101700000221515CC84070472000002000100240B8
:10171000684D00080448054900684968044AC1F357
:10172000C221515CC84070472000002000100240D8
:10173000684D000812A185B00FC98DE80F0014A0F4
:10174000144A006804905168134801F00C03042BFC
:1017500010D0082B0ED1C1F38343C9031DF8030039
:101760000AD5516804AAC1F34041515C0A4A50436A
:10177000B0FBF1F005B0704708494843FAE70000B4
:1017800002030405060708090A0B0C0D0E0F1010C2
:10179000010200000010024000127A0000093D0022
:1017A0002DE9F84F040070D02078C04DC00749D013
:1017B0006868C0F38100012807D06868C0F3810021
:1017C000022809D16868C00306D52868800339D586
:1017D00060680028E7D035E06068B0F5803F0BD046
:1017E00010B1B0F5A02F11D0286820F48030286007
:1017F000286820F4802002E0286840F480302860C7
:10180000606890B1FFF7B2FC06460AE0286840F431
:1018100080202860F0E700BFFFF7A8FC801B642849
:1018200073D828688003F7D50CE0FFF79FFC0646C5
:1018300005E000BFFFF79AFC801B6428F0D82868F9
:101840008003F7D420789A4E80074FF001094FF0BB
:10185000000839D5686810F00C0F07D06868C0F32D
:101860008100022809D16868C00306D4286880076F
:1018700014D52069012808D110E02069B0B1C6F85C
:101880000090FFF773FC074605E00AE1FFF76EFCE6
:10189000C01B0228C4D828688007F7D5286861696A
:1018A00020F0F80040EAC10028600DE0C6F8008092
:1018B000FFF75CFC074604E0FFF758FCC01B02285A
:1018C00023D828688007F7D4207800072CD57948DA
:1018D000A169D9B1C0F80090FFF748FC074604E0C1
:1018E000FFF744FCC01B02280FD8686A8007F7D5B1
:1018F00071484FF4FA510068B0FBF1F0009000BF5E
:101900000098411E0091FAD20EE080E0C0F80080FD
:10191000FFF72CFC074604E0FFF728FCC01B022859
:1019200075D8686A8007F7D42078400760D5E869E1
:101930000027C00008D4E86940F08050E861E869F9
:10194000012700F0805000905C480168C90513D45D
:101950000168834641F480710160FFF707FC82460D
:1019600006E000BFFFF702FCA0EB0A0064284ED897
:10197000DBF80000C005F5D5E06801280AD008B101
:10198000052813D0286A20F001002862286A20F078
:10199000040002E0286A40F001002862E06841F299
:1019A000883B98B1FFF7E2FB82460BE0286A40F0E3
:1019B00004002862EEE700BFFFF7D8FBA0EB0A01A6
:1019C00059455AD8286A8007F6D50CE0FFF7CEFBB8
:1019D000824605E0FFF7CAFBA0EB0A0159454CD847
:1019E000286A8007F6D41FB1E86920F08050E861CA
:1019F000E06988B36968C1F38101022944D00228F3
:101A0000C6F8608004D0FFF7B1FB044638E034E04C
:101A1000FFF7ACFB074604E0FFF7A8FBC01B02285A
:101A20002BD828688001F7D4206AB0F5803F05D113
:101A30006868A16820F4003008436860D4E90801B0
:101A40000843696821F4741108436860C6F860901F
:101A5000FFF78CFB044606E025E000BFFFF786FB9E
:101A6000001B022809D828688001F7D51BE000BFB9
:101A7000FFF77CFB001B022802D90320BDE8F88F8A
:101A800028688001F4D40EE00128F7D06868226A43
:101A900000F48031914204D1616A00F470108842F0
:101AA00001D00120EAE70020E8E700000010024032
:101AB00000004242800442422000002000700040AA
:101AC0004FF0E0210428086903D020F004000861E9
:101AD000704740F00400FAE710B5401EB0F1807F77
:101AE00001D3012010BD4FF0E02460610F21601789
:101AF00002F00EFA0020A06107202061002010BD36
:101B000010B590F83C20012A22D0012280F83C2018
:101B1000CA688C6822F4407222434C6822F48062C6
:101B200022430C6822F4006222430C6922F48052A2
:101B300022434C6922F400522243C969002322F453
:101B400080420A4301684A6480F83C30002010BD9E
:101B5000022010BD70B590F83C20012A2CD0012441
:101B600080F83C40022280F83D2003685A689D6856
:101B700022F070060A6832435A60104B02689A429B
:101B80000ED00F4B9A420BD0B2F1804F08D00D4BC4
:101B90009A4205D00C4B9A4202D00C4B9A4204D187
:101BA000496825F080031943916080F83D40002189
:101BB00080F83C10084670BD022070BD002C01402A
:101BC000003401400004004000080040000C0040C8
:101BD00010B5040003D094F83D0010B107E00120D7
:101BE00010BD002084F83C00204600F01FF80220C1
:101BF00084F83D00211D206801F0EEFB012084F8EF
:101C0000460084F83E0084F83F0084F8400084F8E1
:101C1000410084F8420084F8430084F8440084F8CA
:101C2000450084F83D00002010BD000008B50068A4
:101C30000649884208D10648816941F40051816112
:101C4000806900F40050009008BD0000003401409D
:101C50000010024070B5044690F83C00012817D0EF
:101C6000012584F83C50022084F83D0020688268F9
:101C700022F0770222F47F4282600868502830D038
:101C80000DDC20284DD005DC98B310283BD148E06E
:101C9000022070BD302844D0402834D139E060287B
:101CA00028D0702806D0B0F5805F2CD0B0F5005F4A
:101CB00029D10AE0CB68D1E90121206801F0DFFBDE
:101CC0002068816841F0770109E0CB68D1E9012102
:101CD000206801F0D4FB2068816841F48041816074
:101CE00011E0CA684968206801F09EFC5021206814
:101CF00007E016E0CA684968206801F0A6FC602188
:101D0000206801F0C6FB84F83D50002084F83C00B8
:101D100070BDCA684968206801F086FC40212068CF
:101D2000EFE7226801461046EBE72DE9F0410D464A
:101D3000040003D094F83D0018B108E00120BDE88C
:101D4000F081002084F83C00204600F041F8022099
:101D500084F83D002068816844F207029143816065
:101D6000211D206801F038FB226890689169166A8D
:101D70002B68AF69034340F20330814341EA0721F6
:101D8000A868EF6908434FF6FC418843E96840EAD8
:101D90000720014328692F6A000140EA0730084301
:101DA00069686D6926F0220646EA051529439360A5
:101DB0002268906154F8460B0162012004F81F0963
:101DC000E0752076E0762077A0750020B7E7000068
:101DD00000B585B0002100910191029103911F4A45
:101DE00001681F48914217D1C16941F00201C161E8
:101DF000C16901F002010491816941F0040181612E
:101E00008069694600F004000490C02000901548E5
:101E1000FFF7A6F805B000BD134A9142FAD1C16997
:101E200041F00401C161C16901F0040104918169BB
:101E300041F0200181618069694600F02000049032
:101E40004FF4405000900948FFF78AF8084841686D
:101E500041F0E06141F480514160DBE70004004063
:101E6000001002400008014000080040001401403A
:101E70000000014070B590F83E60044690F83F5075
:101E800090F8423090F84320022021B104290ED06E
:101E9000012E1BD114E0012E18D1012B16D184F88C
:101EA0003E0084F8420001220021206820E0012D3C
:101EB0000CD1012A0AD184F83F0084F8430014E0D1
:101EC000012D03D1012B01D1012A01D0012070BDC8
:101ED00084F83E0084F83F0084F8420084F8430010
:101EE00001220021206801F0BDFA012204212068AE
:101EF00001F0B8FA2068016841F00101016000209A
:101F000070BD000000B585B00021009101910291E3
:101F1000039100680B49884212D10B48816941F056
:101F2000100181618069694600F0100004904FF44F
:101F3000107000900220019003900448FFF710F801
:101F400005B000BD00340140001002400010014007
:101F500070B5044690F83C000D4601280AD00120D7
:101F600084F83C0042B1042A18D0082A2AD00C2A4E
:101F70004DD139E0022070BD206801F093FA20684D
:101F8000816941F0080181612068816921F00401C3
:101F90008161206881692A69114311E0206801F09C
:101FA000B1FA2068816941F400618161206881692A
:101FB00021F480618161206881692A6941EA0221F6
:101FC000816124E0206801F0D3FA2068C16941F002
:101FD0000801C1612068C16921F00401C161206864
:101FE000C1692A69114311E0206801F0F5FA2068FF
:101FF000C16941F40061C1612068C16921F4806157
:10200000C1612068C1692A6941EA0221C1610020D9
:1020100084F83C0070BD10B5040003D094F83D0076
:1020200010B107E0012010BD002084F83C002046DC
:1020300000F01EF8022084F83D00211D206801F008
:10204000CBF9012084F8460084F83E0084F83F0074
:1020500084F8400084F8410084F8420084F843008A
:1020600084F8440084F8450084F83D00002010BD49
:102070007047000010B50446022249B104290ED071
:10208000082913D094F84100012816D0012010BD72
:1020900094F83E000128F9D184F83E200FE094F82E
:1020A0003F000128F2D184F83F2008E094F8400076
:1020B0000128EBD184F8402001E084F8412001227E
:1020C000206801F0CFF913492068134A884201D0F3
:1020D000904203D1436C43F4004343642068884238
:1020E0000DD090420BD0B0F1804F08D00B49884200
:1020F00005D00B49884202D00A49884204D1816840
:1021000001F00701062903D0016841F001010160D7
:10211000002010BD002C01400034014000040040AC
:1021200000080040000C0040704710B504460068ED
:10213000416994F83D20C1F3C011212A0BD151B15E
:10214000416921F080014161606B08B1FEF792FCAA
:10215000204601F086FB2068416994F83E20C1F3D7
:102160008011222A0BD151B1416921F04001416116
:10217000A06B08B1FEF77EFC204601F05AFB002060
:1021800010BD7047F8B5026804461068D1685369FD
:1021900010F00F0F4FF0000554D003F0010601F4CA
:1021A000907737435FD0C20705D0CA0503D5226CAC
:1021B00042F001022264420705D5DA0703D0226CFF
:1021C00042F002022264820705D5DA0703D0226CAE
:1021D00042F004022264020707D501F020023243D4
:1021E00003D0226C42F008022264226C002A35D00F
:1021F000800604D5880602D5204601F03BFB206806
:102200004069216CC0F3801001F0080101432046B1
:1022100025D001F00EFB2068416949061BD54169B4
:1022200021F040014161A06BA8B158494163A06B06
:10223000FEF744FC002811D0A06B416B01B0BDE853
:10224000F040084783060ED58B060CD52046BDE826
:10225000F84001F00FBB2046FFF793FFF8BDFFF7F2
:1022600090FF2564F8BD266B2023012E52D1C606AF
:1022700050D5CE064ED51068506800905069400683
:102280002AD5A16B086840680004000CEAD0A68D2E
:102290008642E7D9E0858869202818D0D06820F4E4
:1022A0008070D0602068416921F00101416120689F
:1022B000416921F04001416184F83E302563206886
:1022C000C16821F01001C160A06BFEF7D3FBA08DA7
:1022D000E18D401A81B219E0A08DE18D401A81B2E2
:1022E000E08D0028BED00029BCD0D06820F49070CA
:1022F000D0602068426922F00102426184F83E30D9
:1023000025632068C26822F01002C2602046FFF7F1
:102310000BFFF8BD05062BD50D0629D594F83D0019
:102320002128F6D1A068B0F5805F01D12069B0B155
:10233000206A411C2162216800784860E08C401EC0
:102340000004000CE084E4D12068C16821F0800121
:10235000C1602068C16841F04001C160F8BD206AD9
:102360000088C0F308005060206A801C2062E5E706
:102370004006F3D54806F1D5D168204621F040014A
:10238000D16084F83D3000F078F9F8BD6537000879
:1023900070B5040004D094F83D00002510B106E0AB
:1023A000012070BD84F83C50204600F023F8242022
:1023B00084F83D002068C16821F40051C1602046C6
:1023C00001F0B4FA2068016921F4904101612068AC
:1023D000416921F02A0141612068C16841F400513E
:1023E000C1602564202084F83D0084F83E00002070
:1023F00070BD00002DE9F04186B0002400940194E6
:1024000002940394054603685B485A4F461502211F
:102410000322DFF86881BB4221D1836943F4804302
:102420008361836903F480430493836943F0040365
:1024300083618069CDE9006100F00400CDE90320EB
:1024400069464046FEF78CFD7000CDE90004694600
:1024500040460294FEF784FD06B0BDE8F081DFF847
:1024600020C18027634539D1C36943F40033C36178
:10247000C36903F400330493836943F00403836165
:102480008069039200F0040004900420CDE900016B
:1024900069464046FEF764FD0820CDE90004694620
:1024A00040460294FEF75CFD374E3648C6E900040C
:1024B000C6E90247346180147461C6E906403046BB
:1024C000FEF7B8FC08B1FEF7D3FAAE63002211465E
:1024D00026207562FFF746F8262048E0DFF8ACC0FA
:1024E0006345B9D1C36943F48023C361C36903F46D
:1024F00080230493836943F0200383618069DFF8BC
:10250000908000F0200004904FF48070CDE900012D
:10251000039269464046FEF723FDCDE90064694613
:1025200040460294FEF71CFD1A48416821F0300134
:1025300041F0E06141F030014160134E11484436F2
:102540003C38C6E90004C6E9024734617461B461ED
:102550003046F461FEF76EFC08B1FEF789FAAE630F
:102560000022114627207562FEF7FCFF2720FEF7A8
:10257000EBFF71E700380140001002400008014005
:10258000004400406C000240B402002000480040BB
:10259000001401400000014090F83E30202B0ED185
:1025A00059B152B190F83C30012B08D0012380F88A
:1025B0003C300023036301F015BA0120704702206C
:1025C00070477047704700002DE9F843044690F8C3
:1025D0003D001F4616460D4620284CD1C5B1BEB160
:1025E00094F83C00012846D0012084F83C004FF0CC
:1025F0000008C4F84080212084F83D00FEF7B6FDB5
:10260000A6848146E684A068B0F5805F03D004E02C
:102610000120BDE8F883206928B12E465FF000054F
:1026200084F83C800EE00026FAE78021204601F085
:1026300011FAA0B9AEB116F8010B21684860E08C20
:10264000401EE084E08C4B464FF0000200970028CB
:10265000EBD14FF04001204601F0FCF930B10320EE
:10266000D7E735F8020BC0F30800E6E7202084F82E
:102670003D000020CDE70220CBE77047FEE7016870
:102680004A69D24352050FD46FF480624A61002137
:1026900040F8301F202242738173026942F0040225
:1026A0000261017301207047002070472DE9F84353
:1026B000044600680D46DDE908970168984616460D
:1026C00041F4807101604B4600224FF00111204619
:1026D000009700F065F848B120680068C00502D591
:1026E0004FF4007020640320BDE8F883216805F0F2
:1026F000FE0008613B464A461549204600F084F832
:1027000088B920684169806900903A464946204668
:1027100000F0C5F848B1206C042804D12068016895
:1027200041F4007101600120DEE7F5B2B8F1010F5C
:1027300009D02168300A08613A464946204600F02F
:10274000AEF80028E7D1206805610020CCE7000042
:102750000200010070B516460D4604460DE0204605
:10276000FFF78DFF08B1012070BD681C05D0FEF792
:10277000FDFC801BA84207D835B120684069C043E2
:102780004007ECD4002070BD002044F8300F202119
:102790006173A073216941F0200121612073E2E798
:1027A0002DE9F0471E4690460D460446C1F3074703
:1027B000DDF8209008E0701C06D0FEF7D7FCA0EBF7
:1027C0000900B0420FD876B12068012F18D0806977
:1027D00025EA00000004000C14D000214145EAD095
:1027E0000020BDE8F087002044F8300F20216173FD
:1027F000A073216941F02001216120730120F0E7DD
:102800004069E5E70121E9E72DE9F0479A4691465D
:102810000E46044600254FF02008C1F3074725E087
:1028200020684069C043400514D42068016841F421
:102830000071016021686FF480604861256384F84D
:102840003D8084F83E50206C40F00400206484F801
:102850003C501FE0B9F1FF3F08D0FEF787FCA0EB2A
:102860000A0149450CD8B9F1000F09D02068012FA1
:1028700013D0806926EA00000004000C0BD0CFE7DB
:1028800044F8305F84F80D80A573206940F0200083
:10289000206125730120BDE8F0874069EAE770B543
:1028A00016460D4604460DE02046FFF7E8FE08B147
:1028B000012070BD681C05D0FEF758FC801BA842A3
:1028C00007D835B120684069C0430006ECD4002029
:1028D00070BD002044F8300F20216173A07321697E
:1028E00041F0200121612073E2E700000D4A00B5AC
:1028F0000023C2F8A0310C48016821F0F00101600A
:10290000016841F030010160C2F8A431052002F5F0
:10291000D072FEF721F8012010600520FEF71CF8A8
:10292000136000BD00802142040C014010B586B048
:10293000002002901A48816941F02001816181697B
:1029400001F020010491816941F0040181618169F4
:1029500001F004010491816941F0080181618069FD
:10296000012400F0080004904FF44070CDE9000409
:102970000320039069460B48FEF7F2FA0948001D50
:10298000016821F0F0010160016841F0300101604F
:102990000548C0F8A441C0F8A04106B010BD000031
:1029A00000100240000C0140008021420D4A10B589
:1029B0000023C2F8A0310C48016821F0F001016049
:1029C000016841F0300101600124C2F8A4410520F2
:1029D00002F5D072FDF7C0FF14600520FDF7BCFFC3
:1029E000136010BD00802142040C0140F0B5054683
:1029F00015480024016821F0F0010160016841F0F0
:102A000080010160114B224626460127C3F8A061D0
:102A10000520FDF7A1FFC3F8A0716006040ED3F8EE
:102A2000240108B1641CE4B20520FDF795FF521C97
:102A3000D2B2082AEAD315B1FFF758FF01E0FFF739
:102A4000B5FF2046F0BD0000040C0140008021428B
:102A500070B504461248016821F0F0010160016878
:102A600041F0300101600F4A0025C2F8A0512B4609
:102A70000126E009C2F8A4016006040E0220FDF759
:102A80006BFFC2F8A0610520FDF766FFC2F8A051F8
:102A90000320FDF761FF5B1CDBB2082BE9D370BD9F
:102AA000040C0140008021420D4800B5016821F06E
:102AB000F0010160016841F030010160094A012024
:102AC000C2F8A401C2F8A001052002F5D072FDF7FA
:102AD00043FF002353600520FDF73EFF136000BD58
:102AE000040C0140008021420E4800B5016821F02D
:102AF000F0010160016841F0300101600A4A0020E4
:102B0000C2F8A001C2F8A401052002F5D072FDF7B9
:102B100023FF01201060506005205DF804EBFDF7F5
:102B20001BBF0000040C014000802142134810B577
:102B30000168002321F0F0010160016841F080018B
:102B400001600F4A0124C2F8A44107E05B1CDBB21C
:102B5000322B03D9FFF7C8FF012010BD0520FDF778
:102B6000FBFED2F824010028F0D1C2F8A0410520D4
:102B7000FDF7F2FE0020C2F8A00110BD040C0140D8
:102B8000008021422DE9F0411D4616468846074641
:102B90000024FFF789FF3846FFF75AFFFFF7C6FF0B
:102BA000012812D04046FFF753FFFFF7BFFF01286F
:102BB0000BD0FFF779FF7F1CF8B2FFF749FFFFF753
:102BC000B5FF012801D06F1E0BE00020BDE8F081A9
:102BD000BC4201D0012000E00020FFF707FF305584
:102BE000641CAC42F4D3FFF77FFF0120EEE72DE930
:102BF000F0411D461646884607460024FFF754FF5D
:102C00003846FFF725FFFFF791FF012816D0404611
:102C1000FFF71EFFFFF78AFF01280FD007E0305DA6
:102C2000FFF716FFFFF782FF012807D0641CAC42B4
:102C3000F5D3FFF759FF0120BDE8F0810020FBE745
:102C40000D4808B5416941F0010141614069002228
:102C500000F00100009011460D20FEF783FC0D20CE
:102C6000FEF772FC002211461020FEF77BFCBDE847
:102C700008401020FEF768BC001002402DE9F04724
:102C800086B0002442480094019402940394816920
:102C900041F040018161816901F040010491816945
:102CA00041F004018161816901F0040104918169AD
:102CB00041F080018161816901F0800104918169A5
:102CC00041F008018161816901F008010491816985
:102CD00041F020018161816901F020010491816945
:102CE00041F0100181618069DFF8A89000F01000C8
:102CF0004FF4C0470490002239464846FEF731FAA7
:102D0000DFF894A04FF4C078002241465046FEF709
:102D100028FA224E4FF44470CDE900066946029429
:102D20001F48FEF71DF90125CDE900560226694628
:102D30001C480296FEF714F900970396CDE901545A
:102D400069464846FEF70CF9CDF800800396CDE9B8
:102D5000015469465046FEF703F90022022106207D
:102D6000FEF700FC0620FEF7EFFB002201210A20FF
:102D7000FEF7F8FB0A20FEF7E7FB002211461720BA
:102D8000FEF7F0FB1720FEF7DFFB06B0BDE8F0878B
:102D900000100240001C0140001001400000111012
:102DA00000180140000801400D4810B50B490160B2
:102DB0000C49416000214FF480428160C0E9031258
:102DC00041618161C1610162FEF7D6F9002803D03B
:102DD000BDE81040FDF74CBE10BD0000005800409B
:102DE000BC000020A086010010B58CB024216846EC
:102DF000FDF7D1F900241648099414490A94C0E952
:102E000000144FF6FF71C0E90241046184610320A0
:102E1000CDE900040120CDE902040494CDE9054088
:102E2000079469460A480894FEF77FFF08B1FDF74A
:102E30001FFE099409A906480A94FEF78BFE002894
:102E400001D0FDF715FE0CB010BD000000040040DD
:102E50001001002010B58CB024216846FDF79BF9C5
:102E600000241648099414490A94C0E900144FF646
:102E7000FF71C0E90241046184610320CDE90004CF
:102E80000120CDE902040494CDE905400794694688
:102E90000A480894FEF749FF08B1FDF7E9FD0994D7
:102EA00009A906480A94FEF755FE002801D0FDF74F
:102EB000DFFD0CB010BD00000008004058010020EC
:102EC00010B596B000240F9410941194129413949A
:102ED0001C2168461494FDF75EF9202107A8FDF730
:102EE0005AF92D482B4901604721C0E9011440F2ED
:102EF000E731C0E903148021C0E90541FEF768FE0F
:102F000008B1FDF7B5FD4FF480500F900FA922488E
:102F1000FEF7A0FE08B1FDF7ABFD1F48FFF77BF8F9
:102F200008B1FDF7A5FD139413A91B481494FEF7EF
:102F300011FE08B1FDF79CFD6020CDE9000402946C
:102F40000394049405940022694613480694FEF7FE
:102F5000FFFF08B1FDF78CFD0C2269460E48FEF715
:102F6000F7FF08B1FDF784FD0794089409944FF426
:102F700000500A94CDE90B4007A907480E94FEF7CC
:102F8000BFFD08B1FDF774FD0348FEF7BBFF16B0A7
:102F900010BD000000340140A00100200C4810B515
:102FA0000A4901604FF4E1314160002181600C2247
:102FB000C160C0E904128161C161FFF7E9F900282D
:102FC00003D0BDE81040FDF753BD10BD00380140EF
:102FD000E80100200C4810B50A4901604FF4E131C6
:102FE0004160002181600C22C160C0E9041281614E
:102FF000C161FFF7CDF9002803D0BDE81040FDF70F
:1030000037BD10BD004400402C0200200C4810B514
:103010000A4901604FF4E1314160002181600C22D6
:10302000C160C0E904128161C161FFF7B1F90028F4
:1030300003D0BDE81040FDF71BBD10BD00480040A7
:1030400070020020FEE7FEE7002000F001B800005B
:1030500070B506465FF0000404F1B000C0B200F0A5
:103060000DFF002000F00AFF102000F007FF0025F0
:10307000304600F015FF6D1CEDB2802DF8D3641CB6
:10308000E4B2082CE8D370BD10B56420FDF748FF0A
:10309000AE2000F0F3FE202000F0F0FE102000F043
:1030A000EDFEB02000F0EAFEC82000F0E7FE0020B0
:1030B00000F0E4FE102000F0E1FE402000F0DEFE13
:1030C000812000F0DBFEFF2000F0D8FEA12000F000
:1030D000D5FEA62000F0D2FEA82000F0CFFE3F20B3
:1030E00000F0CCFEA42000F0C9FED32000F0C6FE04
:1030F000002000F0C3FED52000F0C0FEF02000F05C
:10310000BDFED92000F0BAFE222000F0B7FEDA2082
:1031100000F0B4FE122000F0B1FEDB2000F0AEFEA5
:10312000202000F0ABFE8D2000F0A8FE142000F05F
:10313000A5FEBDE81040AF2000F0A0BE10B58D2068
:1031400000F09CFE142000F099FEBDE81040AF2076
:1031500000F094BE10B50446B031C8B200F08EFE47
:10316000102040EA141000F089FE04F00F00BDE8C2
:10317000104040F0010000F081BE00002DE9F04752
:10318000002591468A460446012B22D0DFF8BC80F8
:10319000022B24D155E02038C7B27E2C04D90AF185
:1031A0000100002400F0FF0A51462046FFF7D2FF3D
:1031B00007EB4700002608EB4007B85D00F070FE03
:1031C000761CF6B2062EF8D3A41D6D1CE4B2EDB247
:1031D00001E0DFF87C8019F805000028DBD1BDE8AC
:1031E000F0872038C7B2782C04D90AF101000024F6
:1031F00000F0FF0A51462046FFF7ACFF5FF00006E3
:1032000006EB071118F8010000F04AFE761CF6B232
:10321000082EF5D30AF10100C1B22046FFF79AFF4C
:103220005FF0000606EB071101EB0800007A00F0E2
:1032300037FE761CF6B2082EF4D308346D1CE4B2C7
:10324000EDB219F805000028CBD1C8E7984F000867
:10325000704D000870B500F019F80948094D8168F3
:10326000A868FCF7FBFF044605480C3081686868D5
:10327000FCF7F4FF2146BDE87040FCF797BF000063
:10328000AC03002024000020704700002DE9F05F0F
:103290000C21342000F098FCDFF8B08098F8000092
:1032A0002B4DE8B3DFF8AC9000246FF00E07A5F1CA
:1032B000180AA5F10C0B00BF09EB440636F9680F9C
:1032C000FDF70AF83946FCF7FBFF0421FCF7F8FF8D
:1032D0004AF82400B6F90600FCF7FEFF3946FCF771
:1032E000EFFF1D49FCF7BAFF4BF82400B6F91200B6
:1032F000FCF7F2FF3946FCF7E3FF1849FCF7AEFF95
:1033000045F82400641C032CD6DBA868D8F80C1000
:10331000FCF79EFF1249134CA860884205D900E0D3
:103320000AE02146FCF742FFA8600C49884203DD11
:103330002146FCF78DFFA860A868FCF7EAFFBDE80E
:10334000F05F02460B4608A000F0BCBD2400002040
:10335000B8030020C40400200000FA4400003443F5
:10336000000034C30000B44325660D0A00000000CD
:103370007047FEF78DB830B58FB028216846FCF74E
:103380000AFF14210AA8FCF706FF01210804CDE971
:1033900000100024029402250491CDE907504FF457
:1033A000E01009906846FEF7FBF908B172B6FEE737
:1033B0000F20CDE90A054FF48060CDE90C400221D1
:1033C0000AA80E94FEF700F9002801D072B6FEE7B5
:1033D0000FB030BD70470000F0B502681C4B1D4DAA
:1033E0001D4E1E4F1E4C4FF0804C984209D0A042FB
:1033F00007D0604505D0A84203D0B04201D0B84202
:1034000004D122F0700E4A6842EA0E02984209D0B6
:10341000A04207D0604505D0A84203D0B04201D0F9
:10342000B84203D122F44075CA682A434D6922F09C
:1034300080022A4302608A68C2620A6882629842F5
:1034400001D0A04201D10969016301214161F0BDB0
:10345000002C01400004004000080040000C004027
:103460000034014010B501F01F030121046A9940A6
:103470008C430462016A9A401143016210BD10B589
:10348000846842EA032224F47F440A432243826090
:1034900010BD826822F070020A4342F00701816089
:1034A00070470000F0B5026A22F001020262036A6E
:1034B00042688469124E24F073050C682C4323F093
:1034C00002058B682B430D4DA84201D0B04205D1B7
:1034D00023F00807CB683B4323F00403A84201D044
:1034E000B04205D14D6922F4407215438A692A43DE
:1034F00042608461496841630362F0BD002C014071
:1035000000340140F0B5026A22F010020262026A41
:10351000436884690D6824F4E64444EA05248D6810
:1035200022F0200242EA05120F4D104EA84201D0AF
:10353000B04206D1CF6822F0800242EA071222F0A0
:103540004002A84201D0B04207D14D6923F4406344
:1035500043EA85038D6943EA8503436084614968D2
:1035600081630262F0BD0000002C01400034014084
:10357000F0B5026A22F480720262026A4368C4698A
:1035800022F4007224F073050C68124E2C438D68EF
:1035900042EA05220E4DA84201D0B04206D1CF68C2
:1035A00022F4006242EA072222F48062A84201D09B
:1035B000B04207D14D6923F4405343EA05138D69A6
:1035C00043EA05134360C4614968C1630262F0BD08
:1035D000002C01400034014030B5026A22F48052D0
:1035E0000262046A4268C3690D6823F4E64343EA51
:1035F00005238D6824F4005444EA0534084DA8429C
:1036000002D0084DA84204D14D6922F4804242EA1A
:1036100085124260C36149680164046230BD0000E4
:10362000002C01400034014010B5036A046A24F004
:1036300001040462846924F0F00444EA021423F0D3
:103640000A020A438461026210BD10B5036A23F0C6
:10365000100303628369046A23F4704343EA02326D
:1036600024F0A00343EA01118261016210BD000051
:103670002DE9F05F324C804600224FF40051204685
:10368000FDF76FFD012291032046FDF76AFD2D4CE9
:10369000002280212046FDF764FD01221102204610
:1036A000FDF75FFDDFF8A0900024D9F80000446228
:1036B000DFF898A0DAF800004462264DC820DFF851
:1036C00090B0254E296840F23257B8F1030F1FD051
:1036D0004C6329680864032001F0C2FAB842FADD9D
:1036E00028684463286804641C49F068FCF7B0FD4E
:1036F0001B49F060884203D35946FCF757FDF06040
:10370000DAF800004462D9F800004462BDE8F09F96
:10371000486328680464042001F0A2FAB842FADD84
:1037200028684463286804640C49F068FCF73EFD8F
:103730005946F0608842E3DBFCF78AFDDFE70000D2
:10374000001C014000100140580100201001002021
:103750000000B443A0010020240000200000B44277
:103760000000B4C310B5406A0021C185C184FEF7D2
:1037700008FD10BD70B5446A2068406994F83D109A
:10378000C0F3C0100025212904D118B1E5842046DA
:1037900000F067F82068406994F83E10C0F380108C
:1037A000222904D118B1E585204600F042F8206CAA
:1037B00040F0100020642046FEF7E3FC70BD10B519
:1037C0000146406A0968096889061BD40021C18541
:1037D0000168CA6822F48072CA6001684A6922F0EE
:1037E00001024A6101684A6922F040024A612021CF
:1037F00080F83E10016B012904D10168CA6822F0EB
:103800001002CA60016B012902D0FEF7DAFE10BD7A
:10381000818DFEF789FC10BD10B5406A016B01294E
:1038200002D0FEF7CFFE10BD818D4908FEF77CFC6B
:1038300010BD0168CA6822F49072CA6001684A69C2
:1038400022F001024A61016B012904D10168CA68B2
:1038500022F01002CA60202180F83E10002101638E
:1038600070470168CA6822F0C002CA60202180F84F
:103870003D10704708B590F83E10222901D0022073
:1038800008BD82684FF480539A4201D1016921B189
:10389000816A9A421BD04AB10AE00268816A526882
:1038A000C2F308020A80816A891C08E0026972B1C9
:1038B0000268526802F07F020A70816A491C8162C4
:1038C000C18D491E0904090CC18503D019E00268A5
:1038D0005268F1E70168CA6822F02002CA600168F4
:1038E000CA6822F48072CA6001684A6922F0010243
:1038F0004A61202180F83E10016B012903D0FEF7B8
:1039000060FE002008BD002101630168CA6822F042
:103910001002CA6001680A68D20602D50A684968BE
:103920000091818DFEF700FCEBE7000070B50446C6
:1039300000680169E26821F4405111430161216985
:10394000A0680843616908432168CA6841F20C63B2
:103950009A430243CA6020684169A26921F4407118
:10396000114341611E492068884202D1FDF7D2FE11
:1039700001E0FDF7BFFE00EBC00101EB0012606843
:1039800064218000B2FBF0F3B3FBF1F36FF0180693
:103990007343B2FBF0F5B2FBF0F605EB830532237F
:1039A00003EB0515B5FBF1F5B6FBF1F605F0F005F7
:1039B00005EB0615B2FBF0F6B2FBF0F0B0FBF1F050
:1039C0006FF01802504306EB800003EB0010B0FBD1
:1039D000F1F0216800F00F002844886070BD0000FD
:1039E0000038014038B581628285002513460446BF
:1039F0000564222084F83E00A26B13489062A26BFB
:103A00001248D062A26B12481063A06B0A4645634D
:103A10002168A06B091DFDF74BFA20680168416819
:103A2000009184F83C50C16841F48071C160206805
:103A3000416941F0010141612068416941F0400163
:103A40004161002038BD0000BF3700081938000868
:103A5000753700082DE9F041984617460E46044692
:103A6000069D1DE0681C1BD02DB1FDF77FFBA0EB70
:103A70000800A84214D92068C16821F4D071C1603F
:103A80002068416921F001014161202084F83D0056
:103A900084F83E00002084F83C000320BDE8F0815B
:103AA0002068006836EA000004D00020B842D9D06F
:103AB0000020F3E70120F9E738B52348FEF762FB61
:103AC000214800680168C1F30011A1B11F4C012118
:103AD00061700168406800901B48FEF726FB1C4897
:103AE000006840686422C0B2C0F1640020701949C7
:103AF0001548FEF751FD174A17481178412911D092
:103B0000422914D0432915D044290FD15178134AA2
:103B1000312912D0322912D0332912D0342905D1BB
:103B2000D16802E051780E4AF2E7016038BD517861
:103B30000C4AEDE751780C4AEAE71168F5E751685D
:103B4000F3E79168F1E700002C020020100000204C
:103B5000B40200203C0300200C000020780000206C
:103B60004800002058000020680000200148FEF7AF
:103B700009BB000070020020FEE7000018B10349F5
:103B80008861002070476FF00500704788000020B2
:103B90006FF0050228B121B1034AC2E902010020F9
:103BA000704710467047000088000020032802D9A3
:103BB0006FF005007047034A106211700020D06159
:103BC00070470000880000202DE9FC5F0D46064686
:103BD00028446FF0050C90287CD2494C6FF0040902
:103BE0002046D4F8208042684FF0FF0A4FF0AA0B1D
:103BF0004FF0270EF7B2C6F30721B8F1000F0FD030
:103C00004FF6FF7000EA45032046B8F1010F007837
:103C100016D0B8F1020F33D0B8F1030F6ED142E0E5
:103C2000042D6BD8F2B38DF800A08DF801B08DF89B
:103C300002E08DF804108DF803700521684659E004
:103C400082B35B1DB3F5807F32D88DF8000003206E
:103C50008DF80100280A8DF802108DF804008DF807
:103C600003708DF805500621684600F03BF9010A03
:103C70008DF806108DF8070008216846626839E063
:103C8000032D3BD823696BB18DF800A08DF801B0EE
:103C90008DF802E08DF804108DF803700522694656
:103CA000984728E017E0E768AFB1B3F5807F03D904
:103CB0006FF00300BDE8FC9F4006F1B2000E114A10
:103CC000B847012817D162692AB10E49002001F5D1
:103CD00080730BE012E04846ECE700BF31F810704B
:103CE00000EB060C401C23F81C7080B2A842F5D3F0
:103CF00029463046904700206662DBE76046D9E7F8
:103D000088000020C403002018B103494861002046
:103D100070476FF0050070478800002010B54BF227
:103D20008851692000F036F86FF0020480B9094923
:103D30000A6A012A01D012B104E0142000E0012037
:103D4000896988470721012000F024F8002800D065
:103D5000204610BD8800002010B54BF28851692024
:103D600000F018F86FF0020480B909490A6A012AC4
:103D700001D012B104E0142000E0012089698847D5
:103D80000021012000F006F8002800D0204610BDD8
:103D9000880000202DE9FC476FF0050A90281AD210
:103DA000354CCAB22346D4F82080FF27090A5B6845
:103DB0006FF0040C4FF0AA09C6B2B8F1000F0DD095
:103DC0002546B8F1010F2D7817D0B8F1020F31D088
:103DD000B8F1030F40D05046BDE8FC87DBB38DF847
:103DE00000708DF801908DF802608DF804108DF848
:103DF00003200521684698473AE063B306238DF80F
:103E000000508DF80130000A8DF802008DF8041082
:103E10008DF803608DF805201946684600F062F8B9
:103E2000010A8DF806108DF80700626808216846BF
:103E300090471DE0236973B18DF800708DF80190F3
:103E40008DF802608DF803208DF804100522694674
:103E5000284698470CE00DE0A4685CB18DF800207E
:103E60008DF80110C1B26806000E02236A46A04711
:103E70000020B1E76046AFE78800002001B584B0BC
:103E80000121642204A88DE807000B460022782156
:103E90000248FDF735FA05B000BD0000BC00002067
:103EA00001B584B00121642204A88DE807000B4607
:103EB000402278210248FDF723FA05B000BD00003A
:103EC000BC0000200FB4054B10B503A9044A0298AA
:103ED00000F000F910BC5DF814FB00006948000810
:103EE000B8000020F0B5FF23084E1C46002206F55E
:103EF000807705E0855C5D40735D63407C5D521CAE
:103F00008A42F7DB44EA0320F0BD00008855000830
:103F10000907090E002804DB00F1E02080F80014F6
:103F2000704700F00F0000F1E02080F8141D70478A
:103F300002E008C8121F08C1002AFAD17047704772
:103F4000002001E001C1121F002AFBD170470000D0
:103F50002DE9FF5F82B00021DDE90430020DDDF8BC
:103F600040B0034318D044F61050A2F2FF3242434F
:103F70001514119801281FD0A5EB0B00401C5FEA17
:103F8000000A4FF000064E4FDFF83891B046504619
:103F900015D5CAF1000413E0119801244AA30128A1
:103FA00001D16FEA0B010298119AC0E90031C0E912
:103FB000024206B0BDE8F09FCBF10000DFE7044607
:103FC0000021404A491842EB0450CDE9001012E0AC
:103FD000E00707D032463B4640464946FCF7D1FA57
:103FE0008046894632463B4610461946FCF7C9FAD8
:103FF00006460F466410002CEAD1DDE90401DDE934
:104000000023BAF1000F06DAFCF7BBFA42464B4632
:10401000FCF7B7FA05E0FCF726FB42464B46FCF7F7
:1040200022FB04460E460022284BFCF7A3FB03D8D4
:104030004FF0FF30014607E00022254B2046314675
:10404000FCF7F8F9FCF77EFB102409E0002C0ADBF2
:104050000A220023FCF786F9039B30321A55641EAE
:1040600050EA0102F2D1641C039AC4F11103144412
:10407000119A012A03D0012208430DD10AE0084316
:1040800004D000204FF0110B119072E7A3EB0B0549
:104090006D1E0DE05B4504DD4FF0000205F10105EA
:1040A00004E003DA4FF00002A5F10105002AECD08C
:1040B00002981199C0E90231C0E9004579E7000092
:1040C000000014400000F03F300000000000F0430A
:1040D0000000E03F2DE9FF4F95B09B46894606461C
:1040E00000250FE2252877D100242746F84A012130
:1040F000059400E0044316F8013F203B01FA03F069
:104100001042F7D130782A2811D06FF02F03307881
:10411000A0F13002092A16D8059A44F0020402EBF5
:10412000820203EB42021044761C0590EFE759F837
:10413000042B0592002A03DA504244F400540590FF
:1041400044F00204761C30782E2816D116F8010FA0
:1041500044F004042A280DD06FF02F023078A0F12B
:104160003003092B09D807EB870302EB4303C71879
:10417000761CF3E759F8047B761C30786C280FD056
:1041800006DC4C2817D068280DD06A2814D104E02A
:10419000742810D07A280FD10DE044F400140AE0FE
:1041A00044F4801401E044F440147278824202D155
:1041B00004F58014761C761C307866280BD013DC4E
:1041C000582877D009DC002875D04528F6D0462835
:1041D000F4D047281AD19DE118E0632835D064282F
:1041E00079D0652812D195E1702873D008DC672852
:1041F000F1D069286FD06E280DD06F2806D1B5E0B8
:1042000073282CD0752875D0782874D05A46179901
:1042100090476D1C75E1C4F30250022809D00328B1
:104220000DD0D9F8001004280DD00D6009F1040953
:1042300067E1D9F80010EA17C1E90052F6E7D9F8AA
:1042400000100D80F2E70D70F0E719F8041B8DF8EF
:10425000001000208DF80100EA46012003E059F823
:1042600004AB4FF0FF3061074FF0000102D40DE0C6
:1042700008F101018846B9420FDA8045F8DB1AF8E7
:1042800008100029F4D108E008F1010188468142B4
:10429000FADB1AF808100029F6D105985B46A0EB66
:1042A000080721463846179A00F094FA284400EB94
:1042B000080507E04DE029E10DE01AF8010B5A4628
:1042C00017999047B8F10108F7D25B462146384666
:1042D000179A13E142E00A220092C4F302524FF00F
:1042E000000A022A08D059F804CB032A4FEAEC71DD
:1042F0000AD00DE029E02AE009F1070121F00702C8
:10430000F2E802C1914609E00FFA8CFC4FEAEC7129
:10431000042A03D14FFA8CFC4FEAEC71002907DA2A
:104320000A460021DCF1000C61EB02012D2202E0C3
:10433000220504D52B228DF80420012203E0E20798
:1043400001D02022F7E7904659E00A2102E010222E
:104350000DE010214FF0000A00910BE010224FF009
:10436000000A44F004040827009203E008224FF0FA
:10437000000A0092C4F30252022A05D059F804CB75
:104380000021032A08D009E009F1070121F0070202
:10439000F2E802C1914605E01FFA8CFC042A01D123
:1043A0000CF0FF0C4FF00008220728D5702806D02B
:1043B000009B83F0100353EA0A0305D00EE040226D
:1043C0008DF80420012208E05CEA010206D03022C8
:1043D0008DF804208DF8050002229046009B83F0A2
:1043E000080353EA0A030AD15CEA010201D1620719
:1043F00005D530228DF804204FF001087F1E582883
:1044000004D034A003900EA802900DE036A0F9E786
:1044100053466046009AFBF7A5FF84460398825CEA
:104420000298401E029002705CEA0100F0D10298EE
:1044300006A9081A00F1200A600702D524F4803486
:1044400000E00127574502DDA7EB0A0000E000204D
:1044500000EB0A01009005984144401A0590E003E2
:1044600006D45B462146179A059800F0B3F9054437
:10447000002706E001A85A46C05D179990476D1CB9
:104480007F1C4745F6DBE0030CD55B462146179AB7
:10449000059800F09FF9054404E030205A4617992A
:1044A00090476D1C0099481E00900029F5DC08E03B
:1044B000029802995A460078491C02911799904730
:1044C0006D1CBAF10001AAF1010AF1DC65E10000FE
:1044D00009280100303132333435363738396162DA
:1044E000636465660000000030313233343536379E
:1044F00038394142434445460000000000F058F975
:104500000544761C307800287FF4ECAD19B02846BD
:10451000BDE8F08F620700D4062709F1070222F0F8
:10452000070CFCE80223E14603F000485FEA080CB0
:1045300002D00FF2702C0DE05FEA045C02D50FF29E
:10454000682C07E05FEAC47C02D00FF2602C01E027
:10455000AFF2700C4FF0FF3823F00043CDF850C09D
:1045600065280CD006DC452809D046281DD04728F0
:104570003DD13DE0662818D067287ED138E0002183
:10458000112F01DB112000E0781CCDE9000106A904
:104590000EA8FFF7DDFCDDE90F010E9A0391002163
:1045A000009207F1010A04914DE04FF0004000979E
:1045B000CDE9011006A90EA8FFF7CAFCDDE90F023C
:1045C00003920E9B11990022DDF80CA00093049237
:1045D00011B9791C00EB010AB7EB0A0004D4C0F151
:1045E000FF3007F1010A0490AAEB0700019044E0B4
:1045F000012F00DA01270021112F01DD112000E039
:104600003846CDE9000106A90EA8FFF7A1FCDDE9B7
:104610000F010E9A0391002104910092BA462107DE
:104620000CD40399514500DA8A46BAF1010F05DD31
:10463000009AAAF10101515C302908D0B84202DA8F
:1046400010F1040F06DA0121CDE9011015E0AAF1FD
:104650000101E9E7002805DC049901440491AAEB73
:10466000000102E0411C514500DD8A460499401AD0
:10467000401C01904FF000400290200704D40198A4
:10468000504501DBCDF8048000208DF84F000298E2
:104690000DF14F07B0F1004F25D02B200E9002985E
:1046A0004FF0020800280CDA404202902D200E90B4
:1046B00007E00A210298FBF73FFE3031029007F82D
:1046C000011DB8F10001A8F10108F2DC02980028F0
:1046D000EFD1791E0E980870307800F0200040F07D
:1046E000450007F8020D12A8C01B00F10708149836
:1046F000007800B1012000EB0A01019801EBE071A4
:1047000005984144401A401E0590E00306D45B46DC
:104710002146179A059800F05DF805441498007832
:1047200018B15A46179990476D1CE00324D55B4693
:104730002146179A059800F04DF805441CE00498AE
:10474000002807DBDDE90301884203DD0098405CB7
:10475000179901E0179930205A469047049805F1BF
:104760000105401C04900198401E019004D12E20A8
:104770005A46179990476D1CBAF10001AAF1010A37
:10478000DDDC05E017F8010B5A46179990476D1CC0
:10479000B8F10001A8F10108F4DC5B462146179A44
:1047A0000598ABE62D0000002B0000002000000063
:1047B0002DE9F041044600251E461746880404D41E
:1047C00005E039462020B0476D1C641EF9D5284607
:1047D000BDE8F0812DE9F041044600251E469046D3
:1047E000C80301D5302700E02027880404D505E060
:1047F00041463846B0476D1C641EF9D52846BDE8D1
:10480000F081000010B504460420FDF759F9014875
:10481000046010BDB000002070B5054600244FF4C0
:104820007A7603E0304600F005F8641CAC42F9D318
:1048300070BD000070B54FF0E024002265690949A1
:10484000A36909684843A1699942FCD002D2A3EB4D
:10485000010302E0A5EB010633441A440B468242F1
:10486000F1D370BDB000002013B54FF6FF730122E5
:1048700069460248FDF7A8FE00981CBD2C020020E6
:104880002DE9F041DFF8448005460024D8F8000007
:1048900044620F4E3068446202E000BF00F01AF834
:1048A000042000F0DDF90746032000F0D9F9384470
:1048B00000EBD070B5EB600FF0DC00F0E5F9D8F854
:1048C0000000446230684462BDE8F0815801002075
:1048D0001001002070B5184C00224FF40051204602
:1048E000FCF73FFC012291032046FCF73AFC134CF5
:1048F000002280212046FCF734FC012211022046D0
:10490000FCF72FFCFEF7A6FC0D4D2946FBF7A3FC98
:1049100000F01AF8FBF7E9FC0A4C21684863FEF73F
:1049200099FC2946FBF742FC00F00EF8FBF7DDFC92
:104930002168086470BD0000001C014000100140A7
:1049400000004843A0010020044910F1FF4F01D3AB
:10495000002070478842FCDD0846704700007A441A
:10496000FCF79EFDFEF707FDFEF788F9FEF768F9F4
:10497000FEF71AFAFEF738FAFEF76CFAFEF72AFB92
:10498000FEF79EFAFEF70AFBFEF740FB4820FFF712
:1049900039FFFEF779FBFEF757FB1C480068C1683A
:1049A00041F01001C160642219491848FDF7F4FD77
:1049B000FDF7BCFF50210320FFF7F8F81549164812
:1049C000FFF7E6F81548FFF79FF91548FFF7D6F807
:1049D0003C211448FDF74EFA3C211348FDF74AFAF2
:1049E0000C211248FDF746FB00211048FDF742FB61
:1049F0004FF4FA70FFF710FFFEF748FC0C480D4922
:104A000080680860FEF742FCFCE700002C020020F2
:104A10003C030020852B0008EF2B0008C908000884
:104A2000610900081001002058010020A0010020A9
:104A3000B80300203000002070B5874C02E000BFB2
:104A4000FFF748FF20680228FADB4FF47A763046F9
:104A5000FFF716FF00F018F975102846FFF7DCFE87
:104A60000420FEF705FE2846FFF7D6FE02E000BF51
:104A7000FFF730FF20680328FADB3046FFF700FF1E
:104A800000F002F92846FFF7C7FE0320FEF7F0FD0D
:104A90002846FFF7C1FE01E0FFF71CFF206805284C
:104AA000FADB4FF42F70FFF7EBFE00F0EDF828462D
:104AB000FFF7B2FE0420FEF7DBFD2846FFF7ACFE51
:104AC00002E000BFFFF706FF20680628FADB304649
:104AD000FFF7D6FE00F0D8F82846FFF79DFE042029
:104AE000FEF7C6FD2846FFF797FE01E0FFF7F2FE4E
:104AF00020680728FADB3046FFF7C2FE00F0C4F852
:104B00002846FFF789FE0320FEF7B2FD2846FFF78F
:104B100083FE01E0FFF7DEFE20680A28FADB284664
:104B2000FFF7AEFE00F0B0F82846FFF775FE00F084
:104B3000B5F82846FFF770FE02E000BFFFF7CAFE97
:104B400020680B28FADB3046FFF79AFE00F09CF84D
:104B50002846FFF761FE0320FEF78AFD2846FFF78F
:104B60005BFE01E0FFF7B6FE20680E28FADB304658
:104B7000FFF786FE00F088F82846FFF74DFE032079
:104B8000FEF776FD2846FFF747FE01E0FFF7A2FE9D
:104B900020680F28FADB2846FFF772FE00F074F851
:104BA00000F07CF82846FFF737FE01E0FFF792FEA1
:104BB00020681028FADB3046FFF762FE00F064F848
:104BC0002846FFF729FE0320FEF752FD2846FFF78F
:104BD00023FE01E0FFF77EFE20681128FADB28465D
:104BE000FFF74EFE00F050F82846FFF715FE00F0E4
:104BF00055F82846FFF710FE02E000BFFFF76AFEF7
:104C000020681228FADB3046FFF73AFE00F03CF845
:104C10002846FFF701FE0320FEF72AFD2846FFF78E
:104C2000FBFD01E0FFF756FE20681628FADB304650
:104C3000FFF726FE00F028F82846FFF7EDFD0320D9
:104C4000FEF716FD2846FFF7E7FD3046FFF718FE92
:104C500002490020086070BD000000200C00002008
:104C6000032809D0042806D105480068406A0028B6
:104C700001D0C0F58030704702480068406A704734
:104C800058010020100100200348002102685163F0
:104C90000068016470470000A00100202DE9F04188
:104CA000264C012251032046FCF75BFA00224FF408
:104CB00080412046FCF755FA214C002280212046F5
:104CC000FCF74FFA012211022046FCF74AFA1D4D6B
:104CD000C8262868466328680664002440F23257D4
:104CE00000E044630320FFF7BBFFB8422868F8DD0B
:104CF00004644FF4FA70FFF78FFD28684663286854
:104D0000046411490120096848624FF6CE26042048
:104D1000FFF7A6FFB042FADA286844632868046403
:104D20000B4C0A49E068FBF741FA0A49E060884207
:104D300002DBFBF78DFAE060BDE8F081001C01406A
:104D400000100140A0010020580100200000344361
:104D5000240000200000B443000000000000000018
:104D60000102030406070809000000000102030411
:104D70000000000000000000002F000000000700FD
:104D8000070000147F147F1400242A7F2A12006277
:104D90006408132300364955225000000503000023
:104DA00000001C224100000041221C000014083EAB
:104DB00008140008083E0808000000A06000000871
:104DC00008080808000060600000002010080402C5
:104DD000003E5149453E0000427F40000042615183
:104DE0004946002141454B31001814127F1000271D
:104DF00045454539003C4A494930000171090503E0
:104E000000364949493600064949291E0000363610
:104E10000000000056360000000814224100001473
:104E20001414141400004122140800020151090650
:104E300000324959513E007C1211127C007F4949D1
:104E40004936003E41414122007F4141221C007F02
:104E500049494941007F09090901003E4149497A10
:104E6000007F0808087F0000417F4100002040418A
:104E70003F01007F08142241007F40404040007FF6
:104E8000020C027F007F0408107F003E4141413E3A
:104E9000007F09090906003E4151215E007F091982
:104EA00029460046494949310001017F0101003F7F
:104EB0004040403F001F2040201F003F4038403FFF
:104EC0000063140814630007087008070061514963
:104ED000454300007F41410000552A552A550000F6
:104EE00041417F0000040201020400404040404074
:104EF000000001020400002054545478007F48440C
:104F0000443800384444442000384444487F003842
:104F10005454541800087E0901020018A4A4A47C6B
:104F2000007F080404780000447D40000040808435
:104F30007D00007F102844000000417F4000007C7D
:104F400004180478007C0804047800384444443889
:104F500000FC242424180018242418FC007C0804D5
:104F6000040800485454542000043F444020003CAE
:104F70004040207C001C2040201C003C4030403C35
:104F8000004428102844001CA0A0A07C00446454C5
:104F90004C44141414141414000000000000000009
:104FA0000000000000000000000000F80000000009
:104FB000000000333000000000100C06100C06004A
:104FC000000000000000000040C07840C0784000B1
:104FD000043F04043F040400007088FC0830000013
:104FE000001820FF211E0000F008F000E01800006B
:104FF00000211C031E211E0000F008887000000024
:105000001E2123241927211010160E000000000075
:105010000000000000000000000000E01804020092
:10502000000000071820400000020418E000000003
:105030000040201807000000404080F08040400001
:105040000202010F01020200000000F00000000057
:105050000101011F0101010000000000000000002B
:1050600080B07000000000000000000000000000A0
:105070000001010101010101000000000000000029
:1050800000303000000000000000000080601804C4
:10509000006018060100000000E010080810E000A1
:1050A000000F102020100F00001010F8000000006A
:1050B0000020203F202000000070080808887000B1
:1050C0000030282422213000003008888848300031
:1050D0000018202020110E000000C02010F8000051
:1050E00000070424243F240000F8088888080800EA
:1050F0000019212020110E0000E0108888180000FF
:10510000000F112020110E0000380808C8380800D0
:105110000000003F00000000007088080888700050
:10512000001C222121221C0000E010080810E000D1
:105130000000312222110F00000000C0C00000005A
:10514000000000303000000000000080000000007F
:105150000000806000000000000080402010080077
:105160000001020408102000404040404040400040
:10517000040404040404040000081020408000001B
:105180000020100804020100007048080808F00020
:105190000000003036010000C030C828E810E000F0
:1051A0000718272423140B000000C038E00000007B
:1051B000203C23020227382008F8888888700000E5
:1051C000203F202020110E00C030080808083800B9
:1051D000071820202010080008F808080810E00030
:1051E000203F202020100F0008F88888E8081000D1
:1051F000203F20202320180008F88888E8081000A5
:10520000203F200003000000C030080808380000DC
:1052100007182020221E020008F808000008F808DD
:10522000203F210101213F20000808F80808000064
:105230000020203F2020000000000808F808080097
:10524000C08080807F00000008F888C0281808000F
:10525000203F20012638200008F808000000000048
:10526000203F20202020300008F8F800F8F808003F
:10527000203F003F003F200008F830C00008F80839
:10528000203F200007183F00E01008080810E00049
:105290000F10202020100F0008F808080808F00060
:1052A000203F210101010000E01008080810E00083
:1052B0000F18242438504F0008F888888888700018
:1052C000203F2000030C30200070880808083800B8
:1052D0000038202121221C00180808F808081800AE
:1052E0000000203F2000000008F808000008F8082F
:1052F000001F202020201F000878880000C83808E0
:10530000000007380E010000F80800F80008F80057
:10531000033C0700073C03000818688080681808F1
:1053200020302C03032C30200838C800C83808006F
:105330000000203F2000000010080808C8380800BE
:105340002038262120201800000000FE0202020062
:105350000000007F40404000000C30C00000000012
:10536000000000010638C00000020202FE0000003A
:10537000004040407F0000000000040202020400E0
:10538000000000000000000000000000000000001D
:105390008080808080808080000202040000000005
:1053A00000000000000000000000808080800000FD
:1053B0000019242222223F2008F8008080000000EB
:1053C000003F112020110E000000008080800000AE
:1053D000000E112020201100000000808088F800BD
:1053E000000E112020103F200000808080800000EF
:1053F000001F222222221300008080F08888881853
:105400000020203F2020000000008080808080005D
:10541000006B94949493600008F8008080800000F2
:10542000203F210000203F200080989800000000CD
:105430000020203F202000000000008098980000FD
:1054400000C08080807F000008F80000808080001D
:10545000203F24022D302000000808F80000000042
:105460000020203F202000008080808080808000FD
:10547000203F20003F20003F80800080808000008F
:10548000203F210000203F2000008080808000001D
:10549000001F202020201F0080800080800000004E
:1054A00080FFA12020110E0000000080808080007D
:1054B000000E112020A0FF8080808000808080006E
:1054C00020203F212000010000008080808080009B
:1054D0000033242424241900008080E08080000010
:1054E0000000001F2020000080800000008080005D
:1054F000001F202020103F208080800000808080BE
:1055000000010E300806010080800080008080804D
:105510000F300C030C300F00008080008080800072
:105520000020312E0E31200080808000008080809D
:1055300080818E701806010000808080808080004D
:105540000021302C2221300000000000807C02026B
:1055500000000000003F404000000000FF0000008D
:1055600000000000FF0000000002027C800000003C
:105570000040403F00000000000601010202040458
:10558000000000000000000000C1814001C0804117
:1055900001C0804100C1814001C0804100C1814003
:1055A00000C1814001C0804101C0804100C18140F3
:1055B00000C1814001C0804100C1814001C08041E3
:1055C00001C0804100C1814001C0804100C18140D3
:1055D00000C1814001C0804100C1814001C08041C3
:1055E00001C0804100C1814000C1814001C08041B3
:1055F00001C0804100C1814001C0804100C18140A3
:1056000000C1814001C0804101C0804100C1814092
:1056100000C1814001C0804100C1814001C0804182
:1056200001C0804100C1814000C1814001C0804172
:1056300001C0804100C1814001C0804100C1814062
:1056400000C1814001C0804100C1814001C0804152
:1056500001C0804100C1814001C0804100C1814042
:1056600000C1814001C0804101C0804100C1814032
:1056700000C1814001C0804100C1814001C0804122
:1056800001C0804100C1814000C0C101C30302C20A
:10569000C60607C705C5C404CC0C0DCD0FCFCE0E72
:1056A0000ACACB0BC90908C8D81819D91BDBDA1AE2
:1056B0001EDEDF1FDD1D1CDC14D4D515D71716D652
:1056C000D21213D311D1D010F03031F133F3F232C2
:1056D00036F6F737F53534F43CFCFD3DFF3F3EFE32
:1056E000FA3A3BFB39F9F83828E8E929EB2B2AEAA2
:1056F000EE2E2FEF2DEDEC2CE42425E527E7E62612
:1057000022E2E323E12120E0A06061A163A3A26281
:1057100066A6A767A56564A46CACAD6DAF6F6EAEF1
:10572000AA6A6BAB69A9A86878B8B979BB7B7ABA61
:10573000BE7E7FBF7DBDBC7CB47475B577B7B676D1
:1057400072B2B373B17170B0509091519353529241
:1057500096565797559594549C5C5D9D5F9F9E5EB1
:105760005A9A9B5B99595898884849894B8B8A4A21
:105770004E8E8F4F8D4D4C8C448485458747468691
:105780008242438341818040A857000800000020E6
:10579000BC000000303F000864580008BC00002036
:1057A0002C090000403F000800000000000000003D
:1057B00000000000000000000000000001000000E8
:1057C00010000000000000000024F40001000000B0
:1057D0000000204200000040000000000000803F68
:1057E00000000000000000000000000000000000B9
:1057F000130000001400000015000000110000005C
:1058000001000000140000000D0000000F00000067
:1058100004000000070000000C0000000A00000067
:105820000500000006000000090000000A0000005A
:10583000FF00000000000000000000000000000069
:105840000000000000000000000000000000000058
:1058500000000000000000000000000001FF000048
:045860000000000044
:0400000508000131BD
:00000001FF
